{
  "contractName": "PhishingLog",
  "abi": [
    {
      "inputs": [
        {
          "internalType": "uint256",
          "name": "",
          "type": "uint256"
        }
      ],
      "name": "logs",
      "outputs": [
        {
          "internalType": "string",
          "name": "content",
          "type": "string"
        },
        {
          "internalType": "string",
          "name": "contentType",
          "type": "string"
        },
        {
          "internalType": "uint256",
          "name": "timestamp",
          "type": "uint256"
        }
      ],
      "stateMutability": "view",
      "type": "function",
      "constant": true
    },
    {
      "inputs": [
        {
          "internalType": "string",
          "name": "_content",
          "type": "string"
        },
        {
          "internalType": "string",
          "name": "_contentType",
          "type": "string"
        },
        {
          "internalType": "uint256",
          "name": "_timestamp",
          "type": "uint256"
        }
      ],
      "name": "addLog",
      "outputs": [],
      "stateMutability": "nonpayable",
      "type": "function"
    },
    {
      "inputs": [],
      "name": "getLogs",
      "outputs": [
        {
          "components": [
            {
              "internalType": "string",
              "name": "content",
              "type": "string"
            },
            {
              "internalType": "string",
              "name": "contentType",
              "type": "string"
            },
            {
              "internalType": "uint256",
              "name": "timestamp",
              "type": "uint256"
            }
          ],
          "internalType": "struct PhishingLog.LogEntry[]",
          "name": "",
          "type": "tuple[]"
        }
      ],
      "stateMutability": "view",
      "type": "function",
      "constant": true
    }
  ],
  "bytecode": "0x608060405234801561001057600080fd5b506109ba806100206000396000f3fe608060405234801561001057600080fd5b50600436106100415760003560e01c80633440977314610046578063e79899bd14610062578063fe290ccb14610094575b600080fd5b610060600480360381019061005b919061053a565b6100b2565b005b61007c600480360381019061007791906105b9565b610143565b60405161008b93929190610774565b60405180910390f35b61009c61028d565b6040516100a99190610752565b60405180910390f35b60006040518060600160405280858152602001848152602001838152509080600181540180825580915050600190039060005260206000209060030201600090919091909150600082015181600001908051906020019061011492919061041a565b50602082015181600101908051906020019061013192919061041a565b50604082015181600201555050505050565b6000818154811061015357600080fd5b9060005260206000209060030201600091509050806000018054610176906108cc565b80601f01602080910402602001604051908101604052809291908181526020018280546101a2906108cc565b80156101ef5780601f106101c4576101008083540402835291602001916101ef565b820191906000526020600020905b8154815290600101906020018083116101d257829003601f168201915b505050505090806001018054610204906108cc565b80601f0160208091040260200160405190810160405280929190818152602001828054610230906108cc565b801561027d5780601f106102525761010080835404028352916020019161027d565b820191906000526020600020905b81548152906001019060200180831161026057829003601f168201915b5050505050908060020154905083565b60606000805480602002602001604051908101604052809291908181526020016000905b8282101561041157838290600052602060002090600302016040518060600160405290816000820180546102e4906108cc565b80601f0160208091040260200160405190810160405280929190818152602001828054610310906108cc565b801561035d5780601f106103325761010080835404028352916020019161035d565b820191906000526020600020905b81548152906001019060200180831161034057829003601f168201915b50505050508152602001600182018054610376906108cc565b80601f01602080910402602001604051908101604052809291908181526020018280546103a2906108cc565b80156103ef5780601f106103c4576101008083540402835291602001916103ef565b820191906000526020600020905b8154815290600101906020018083116103d257829003601f168201915b50505050508152602001600282015481525050815260200190600101906102b1565b50505050905090565b828054610426906108cc565b90600052602060002090601f016020900481019282610448576000855561048f565b82601f1061046157805160ff191683800117855561048f565b8280016001018555821561048f579182015b8281111561048e578251825591602001919060010190610473565b5b50905061049c91906104a0565b5090565b5b808211156104b95760008160009055506001016104a1565b5090565b60006104d06104cb846107ea565b6107b9565b9050828152602081018484840111156104e857600080fd5b6104f384828561088a565b509392505050565b600082601f83011261050c57600080fd5b813561051c8482602086016104bd565b91505092915050565b6000813590506105348161096d565b92915050565b60008060006060848603121561054f57600080fd5b600084013567ffffffffffffffff81111561056957600080fd5b610575868287016104fb565b935050602084013567ffffffffffffffff81111561059257600080fd5b61059e868287016104fb565b92505060406105af86828701610525565b9150509250925092565b6000602082840312156105cb57600080fd5b60006105d984828501610525565b91505092915050565b60006105ee83836106dd565b905092915050565b60006106018261082a565b61060b818561084d565b93508360208202850161061d8561081a565b8060005b85811015610659578484038952815161063a85826105e2565b945061064583610840565b925060208a01995050600181019050610621565b50829750879550505050505092915050565b600061067682610835565b610680818561085e565b9350610690818560208601610899565b6106998161095c565b840191505092915050565b60006106af82610835565b6106b9818561086f565b93506106c9818560208601610899565b6106d28161095c565b840191505092915050565b600060608301600083015184820360008601526106fa828261066b565b91505060208301518482036020860152610714828261066b565b91505060408301516107296040860182610734565b508091505092915050565b61073d81610880565b82525050565b61074c81610880565b82525050565b6000602082019050818103600083015261076c81846105f6565b905092915050565b6000606082019050818103600083015261078e81866106a4565b905081810360208301526107a281856106a4565b90506107b16040830184610743565b949350505050565b6000604051905081810181811067ffffffffffffffff821117156107e0576107df61092d565b5b8060405250919050565b600067ffffffffffffffff8211156108055761080461092d565b5b601f19601f8301169050602081019050919050565b6000819050602082019050919050565b600081519050919050565b600081519050919050565b6000602082019050919050565b600082825260208201905092915050565b600082825260208201905092915050565b600082825260208201905092915050565b6000819050919050565b82818337600083830152505050565b60005b838110156108b757808201518184015260208101905061089c565b838111156108c6576000848401525b50505050565b600060028204905060018216806108e457607f821691505b602082108114156108f8576108f76108fe565b5b50919050565b7f4e487b7100000000000000000000000000000000000000000000000000000000600052602260045260246000fd5b7f4e487b7100000000000000000000000000000000000000000000000000000000600052604160045260246000fd5b6000601f19601f8301169050919050565b61097681610880565b811461098157600080fd5b5056fea2646970667358221220d0ab8403b8878d0e27c12b1a77cb23d7014852f0e0d9ecd1a9c09434122640d864736f6c63430008000033",
  "immutableReferences": {},
  "source": "// SPDX-License-Identifier: MIT\r\npragma solidity ^0.8.0;\r\n\r\ncontract PhishingLog {\r\n    struct LogEntry {\r\n        string content;\r\n        string contentType;\r\n        uint timestamp;\r\n    }\r\n\r\n    LogEntry[] public logs;\r\n\r\n    function addLog(string memory _content, string memory _contentType, uint _timestamp) public {\r\n        logs.push(LogEntry({\r\n            content: _content,\r\n            contentType: _contentType,\r\n            timestamp: _timestamp\r\n        }));\r\n    }\r\n\r\n    function getLogs() public view returns (LogEntry[] memory) {\r\n        return logs;\r\n    }\r\n}\r\n",
  "sourcePath": "C:\\Users\\Keethika P\\phishing-detection-system\\blockchain\\contracts\\PhishingLog.sol",
  "compiler": {
    "name": "solc",
    "version": "0.8.0+commit.c7dfd78e.Emscripten.clang"
  },
  "schemaVersion": "3.4.16",
  "updatedAt": "2024-08-06T13:27:04.777Z",
  "networkType": "ethereum",
  "devdoc": {
    "kind": "dev",
    "methods": {},
    "version": 1
  },
  "userdoc": {
    "kind": "user",
    "methods": {},
    "version": 1
  }
}